{
  "_format": "hh-sol-artifact-1",
  "contractName": "Arbitrage",
  "sourceName": "contracts/Arbitrage.sol",
  "abi": [
    {
      "inputs": [
        {
          "internalType": "address",
          "name": "_sRouter",
          "type": "address"
        },
        {
          "internalType": "address",
          "name": "_uRouter",
          "type": "address"
        }
      ],
      "stateMutability": "nonpayable",
      "type": "constructor"
    },
    {
      "inputs": [],
      "name": "WETH",
      "outputs": [
        {
          "internalType": "address",
          "name": "",
          "type": "address"
        }
      ],
      "stateMutability": "view",
      "type": "function"
    },
    {
      "inputs": [
        {
          "internalType": "address",
          "name": "",
          "type": "address"
        },
        {
          "components": [
            {
              "internalType": "address",
              "name": "owner",
              "type": "address"
            },
            {
              "internalType": "uint256",
              "name": "number",
              "type": "uint256"
            }
          ],
          "internalType": "struct Structs.Info",
          "name": "",
          "type": "tuple"
        },
        {
          "internalType": "bytes",
          "name": "data",
          "type": "bytes"
        }
      ],
      "name": "callFunction",
      "outputs": [],
      "stateMutability": "nonpayable",
      "type": "function"
    },
    {
      "inputs": [
        {
          "internalType": "address",
          "name": "",
          "type": "address"
        }
      ],
      "name": "currencies",
      "outputs": [
        {
          "internalType": "uint256",
          "name": "",
          "type": "uint256"
        }
      ],
      "stateMutability": "view",
      "type": "function"
    },
    {
      "inputs": [
        {
          "internalType": "bool",
          "name": "_startOnUniswap",
          "type": "bool"
        },
        {
          "internalType": "address",
          "name": "_token0",
          "type": "address"
        },
        {
          "internalType": "address",
          "name": "_token1",
          "type": "address"
        },
        {
          "internalType": "uint256",
          "name": "_flashAmount",
          "type": "uint256"
        }
      ],
      "name": "executeTrade",
      "outputs": [],
      "stateMutability": "nonpayable",
      "type": "function"
    },
    {
      "inputs": [],
      "name": "owner",
      "outputs": [
        {
          "internalType": "address",
          "name": "",
          "type": "address"
        }
      ],
      "stateMutability": "view",
      "type": "function"
    },
    {
      "inputs": [],
      "name": "sRouter",
      "outputs": [
        {
          "internalType": "contract IUniswapV2Router02",
          "name": "",
          "type": "address"
        }
      ],
      "stateMutability": "view",
      "type": "function"
    },
    {
      "inputs": [
        {
          "internalType": "address",
          "name": "token",
          "type": "address"
        }
      ],
      "name": "tokenToMarketId",
      "outputs": [
        {
          "internalType": "uint256",
          "name": "",
          "type": "uint256"
        }
      ],
      "stateMutability": "view",
      "type": "function"
    },
    {
      "inputs": [],
      "name": "uRouter",
      "outputs": [
        {
          "internalType": "contract IUniswapV2Router02",
          "name": "",
          "type": "address"
        }
      ],
      "stateMutability": "view",
      "type": "function"
    }
  ],
  "bytecode": "0x60c0604052731e0447b19bb6ecfdae1e4ae1694b0c3659614e4e6000806101000a81548173ffffffffffffffffffffffffffffffffffffffff021916908373ffffffffffffffffffffffffffffffffffffffff16021790555073c02aaa39b223fe8d0a0e5c4f27ead9083c756cc2600160006101000a81548173ffffffffffffffffffffffffffffffffffffffff021916908373ffffffffffffffffffffffffffffffffffffffff160217905550348015620000ba57600080fd5b506040516200258a3803806200258a8339818101604052810190620000e0919062000262565b600160026000600160009054906101000a900473ffffffffffffffffffffffffffffffffffffffff1673ffffffffffffffffffffffffffffffffffffffff1673ffffffffffffffffffffffffffffffffffffffff168152602001908152602001600020819055508173ffffffffffffffffffffffffffffffffffffffff1660808173ffffffffffffffffffffffffffffffffffffffff16815250508073ffffffffffffffffffffffffffffffffffffffff1660a08173ffffffffffffffffffffffffffffffffffffffff168152505033600360006101000a81548173ffffffffffffffffffffffffffffffffffffffff021916908373ffffffffffffffffffffffffffffffffffffffff1602179055505050620002a9565b600080fd5b600073ffffffffffffffffffffffffffffffffffffffff82169050919050565b60006200022a82620001fd565b9050919050565b6200023c816200021d565b81146200024857600080fd5b50565b6000815190506200025c8162000231565b92915050565b600080604083850312156200027c576200027b620001f8565b5b60006200028c858286016200024b565b92505060206200029f858286016200024b565b9150509250929050565b60805160a05161229f620002eb6000396000818161028001528181610ef80152610fb901526000818161019f015281816110ac015261116d015261229f6000f3fe608060405234801561001057600080fd5b50600436106100885760003560e01c80638b4187131161005b5780638b418713146101155780638da5cb5b14610131578063ad5c46481461014f578063b82687881461016d57610088565b8063017c64b01461008d5780631395dd23146100ab5780635cf39049146100c75780636036cba3146100e5575b600080fd5b61009561019d565b6040516100a29190611395565b60405180910390f35b6100c560048036038101906100c09190611470565b6101c1565b005b6100cf61027e565b6040516100dc9190611395565b60405180910390f35b6100ff60048036038101906100fa91906114d7565b6102a2565b60405161010c9190611513565b60405180910390f35b61012f600480360381019061012a91906115b7565b6102ba565b005b6101396108de565b604051610146919061163a565b60405180910390f35b610157610904565b604051610164919061163a565b60405180910390f35b610187600480360381019061018291906114d7565b61092a565b6040516101949190611513565b60405180910390f35b7f000000000000000000000000000000000000000000000000000000000000000081565b60008373ffffffffffffffffffffffffffffffffffffffff166370a08231306040518263ffffffff1660e01b81526004016101fc919061163a565b602060405180830381865afa158015610219573d6000803e3d6000fd5b505050506040513d601f19601f8201168201806040525081019061023d919061166a565b90506000858585858560405160200161025a9594939291906116a6565b60405160208183030381529060405290506102768584836109c7565b505050505050565b7f000000000000000000000000000000000000000000000000000000000000000081565b60026020528060005260406000206000915090505481565b60008054906101000a900473ffffffffffffffffffffffffffffffffffffffff1673ffffffffffffffffffffffffffffffffffffffff163373ffffffffffffffffffffffffffffffffffffffff1614610348576040517f08c379a000000000000000000000000000000000000000000000000000000000815260040161033f9061177c565b60405180910390fd5b6000806000806000868681019061035f91906117da565b9450945094509450945060008473ffffffffffffffffffffffffffffffffffffffff166370a08231306040518263ffffffff1660e01b81526004016103a4919061163a565b602060405180830381865afa1580156103c1573d6000803e3d6000fd5b505050506040513d601f19601f820116820180604052508101906103e5919061166a565b90508282826103f49190611884565b14610434576040517f08c379a000000000000000000000000000000000000000000000000000000000815260040161042b90611904565b60405180910390fd5b6000600267ffffffffffffffff81111561045157610450611924565b5b60405190808252806020026020018201604052801561047f5781602001602082028036833780820191505090505b509050858160008151811061049757610496611953565b5b602002602001019073ffffffffffffffffffffffffffffffffffffffff16908173ffffffffffffffffffffffffffffffffffffffff168152505084816001815181106104e6576104e5611953565b5b602002602001019073ffffffffffffffffffffffffffffffffffffffff16908173ffffffffffffffffffffffffffffffffffffffff168152505086156106655761053281856000610ebf565b848160008151811061054757610546611953565b5b602002602001019073ffffffffffffffffffffffffffffffffffffffff16908173ffffffffffffffffffffffffffffffffffffffff1681525050858160018151811061059657610595611953565b5b602002602001019073ffffffffffffffffffffffffffffffffffffffff16908173ffffffffffffffffffffffffffffffffffffffff1681525050610660818673ffffffffffffffffffffffffffffffffffffffff166370a08231306040518263ffffffff1660e01b815260040161060d919061163a565b602060405180830381865afa15801561062a573d6000803e3d6000fd5b505050506040513d601f19601f8201168201806040525081019061064e919061166a565b60018761065b9190611982565b611073565b6107a0565b61067181856000611073565b848160008151811061068657610685611953565b5b602002602001019073ffffffffffffffffffffffffffffffffffffffff16908173ffffffffffffffffffffffffffffffffffffffff168152505085816001815181106106d5576106d4611953565b5b602002602001019073ffffffffffffffffffffffffffffffffffffffff16908173ffffffffffffffffffffffffffffffffffffffff168152505061079f818673ffffffffffffffffffffffffffffffffffffffff166370a08231306040518263ffffffff1660e01b815260040161074c919061163a565b602060405180830381865afa158015610769573d6000803e3d6000fd5b505050506040513d601f19601f8201168201806040525081019061078d919061166a565b60018761079a9190611982565b610ebf565b5b8573ffffffffffffffffffffffffffffffffffffffff1663a9059cbb600360009054906101000a900473ffffffffffffffffffffffffffffffffffffffff166001876107ec9190611982565b8973ffffffffffffffffffffffffffffffffffffffff166370a08231306040518263ffffffff1660e01b8152600401610825919061163a565b602060405180830381865afa158015610842573d6000803e3d6000fd5b505050506040513d601f19601f82011682018060405250810190610866919061166a565b6108709190611884565b6040518363ffffffff1660e01b815260040161088d9291906119b6565b6020604051808303816000875af11580156108ac573d6000803e3d6000fd5b505050506040513d601f19601f820116820180604052508101906108d091906119f4565b505050505050505050505050565b600360009054906101000a900473ffffffffffffffffffffffffffffffffffffffff1681565b600160009054906101000a900473ffffffffffffffffffffffffffffffffffffffff1681565b600080600260008473ffffffffffffffffffffffffffffffffffffffff1673ffffffffffffffffffffffffffffffffffffffff168152602001908152602001600020549050600081036109b2576040517f08c379a00000000000000000000000000000000000000000000000000000000081526004016109a990611a6d565b60405180910390fd5b6001816109bf9190611884565b915050919050565b8273ffffffffffffffffffffffffffffffffffffffff1663095ea7b360008054906101000a900473ffffffffffffffffffffffffffffffffffffffff16600185610a119190611982565b6040518363ffffffff1660e01b8152600401610a2e9291906119b6565b6020604051808303816000875af1158015610a4d573d6000803e3d6000fd5b505050506040513d601f19601f82011682018060405250810190610a7191906119f4565b506000600167ffffffffffffffff811115610a8f57610a8e611924565b5b604051908082528060200260200182016040528015610ac857816020015b610ab5611227565b815260200190600190039081610aad5790505b5090506000600367ffffffffffffffff811115610ae857610ae7611924565b5b604051908082528060200260200182016040528015610b2157816020015b610b0e611257565b815260200190600190039081610b065790505b50905060405180604001604052803073ffffffffffffffffffffffffffffffffffffffff168152602001600081525082600081518110610b6457610b63611953565b5b602002602001018190525060006040518060800160405280600015158152602001600080811115610b9857610b97611a8d565b5b8152602001600080811115610bb057610baf611a8d565b5b8152602001868152509050610bc3611257565b600181600001906008811115610bdc57610bdb611a8d565b5b90816008811115610bf057610bef611a8d565b5b815250506000816020018181525050818160400181905250610c118761092a565b816060018181525050308160a0019073ffffffffffffffffffffffffffffffffffffffff16908173ffffffffffffffffffffffffffffffffffffffff16815250508083600081518110610c6757610c66611953565b5b6020026020010181905250610c7a611257565b600881600001906008811115610c9357610c92611a8d565b5b90816008811115610ca757610ca6611a8d565b5b815250506000816020018181525050308160a0019073ffffffffffffffffffffffffffffffffffffffff16908173ffffffffffffffffffffffffffffffffffffffff1681525050858160e001819052508084600181518110610d0c57610d0b611953565b5b6020026020010181905250610d1f611257565b60006040518060800160405280600115158152602001600080811115610d4857610d47611a8d565b5b8152602001600080811115610d6057610d5f611a8d565b5b815260200160018b610d729190611982565b8152509050600082600001906008811115610d9057610d8f611a8d565b5b90816008811115610da457610da3611a8d565b5b815250506000826020018181525050808260400181905250610dc58a61092a565b826060018181525050308260a0019073ffffffffffffffffffffffffffffffffffffffff16908173ffffffffffffffffffffffffffffffffffffffff16815250508186600281518110610e1b57610e1a611953565b5b602002602001018190525060008054906101000a900473ffffffffffffffffffffffffffffffffffffffff1673ffffffffffffffffffffffffffffffffffffffff1663a67a6a4588886040518363ffffffff1660e01b8152600401610e81929190611ef9565b600060405180830381600087803b158015610e9b57600080fd5b505af1158015610eaf573d6000803e3d6000fd5b5050505050505050505050505050565b82600081518110610ed357610ed2611953565b5b602002602001015173ffffffffffffffffffffffffffffffffffffffff1663095ea7b37f0000000000000000000000000000000000000000000000000000000000000000846040518363ffffffff1660e01b8152600401610f359291906119b6565b6020604051808303816000875af1158015610f54573d6000803e3d6000fd5b505050506040513d601f19601f82011682018060405250810190610f7891906119f4565b610fb7576040517f08c379a0000000000000000000000000000000000000000000000000000000008152600401610fae90611f7c565b60405180910390fd5b7f000000000000000000000000000000000000000000000000000000000000000073ffffffffffffffffffffffffffffffffffffffff166338ed1739838386306104b0426110059190611982565b6040518663ffffffff1660e01b815260040161102595949392919061204b565b6000604051808303816000875af1158015611044573d6000803e3d6000fd5b505050506040513d6000823e3d601f19601f8201168201806040525081019061106d91906121b4565b50505050565b8260008151811061108757611086611953565b5b602002602001015173ffffffffffffffffffffffffffffffffffffffff1663095ea7b37f0000000000000000000000000000000000000000000000000000000000000000846040518363ffffffff1660e01b81526004016110e99291906119b6565b6020604051808303816000875af1158015611108573d6000803e3d6000fd5b505050506040513d601f19601f8201168201806040525081019061112c91906119f4565b61116b576040517f08c379a000000000000000000000000000000000000000000000000000000000815260040161116290612249565b60405180910390fd5b7f000000000000000000000000000000000000000000000000000000000000000073ffffffffffffffffffffffffffffffffffffffff166338ed1739838386306104b0426111b99190611982565b6040518663ffffffff1660e01b81526004016111d995949392919061204b565b6000604051808303816000875af11580156111f8573d6000803e3d6000fd5b505050506040513d6000823e3d601f19601f8201168201806040525081019061122191906121b4565b50505050565b6040518060400160405280600073ffffffffffffffffffffffffffffffffffffffff168152602001600081525090565b6040518061010001604052806000600881111561127757611276611a8d565b5b81526020016000815260200161128b6112ca565b81526020016000815260200160008152602001600073ffffffffffffffffffffffffffffffffffffffff16815260200160008152602001606081525090565b60405180608001604052806000151581526020016000808111156112f1576112f0611a8d565b5b815260200160008081111561130957611308611a8d565b5b8152602001600081525090565b600073ffffffffffffffffffffffffffffffffffffffff82169050919050565b6000819050919050565b600061135b61135661135184611316565b611336565b611316565b9050919050565b600061136d82611340565b9050919050565b600061137f82611362565b9050919050565b61138f81611374565b82525050565b60006020820190506113aa6000830184611386565b92915050565b6000604051905090565b600080fd5b600080fd5b60008115159050919050565b6113d9816113c4565b81146113e457600080fd5b50565b6000813590506113f6816113d0565b92915050565b600061140782611316565b9050919050565b611417816113fc565b811461142257600080fd5b50565b6000813590506114348161140e565b92915050565b6000819050919050565b61144d8161143a565b811461145857600080fd5b50565b60008135905061146a81611444565b92915050565b6000806000806080858703121561148a576114896113ba565b5b6000611498878288016113e7565b94505060206114a987828801611425565b93505060406114ba87828801611425565b92505060606114cb8782880161145b565b91505092959194509250565b6000602082840312156114ed576114ec6113ba565b5b60006114fb84828501611425565b91505092915050565b61150d8161143a565b82525050565b60006020820190506115286000830184611504565b92915050565b600080fd5b6000604082840312156115495761154861152e565b5b81905092915050565b600080fd5b600080fd5b600080fd5b60008083601f84011261157757611576611552565b5b8235905067ffffffffffffffff81111561159457611593611557565b5b6020830191508360018202830111156115b0576115af61155c565b5b9250929050565b600080600080608085870312156115d1576115d06113ba565b5b60006115df87828801611425565b94505060206115f087828801611533565b935050606085013567ffffffffffffffff811115611611576116106113bf565b5b61161d87828801611561565b925092505092959194509250565b611634816113fc565b82525050565b600060208201905061164f600083018461162b565b92915050565b60008151905061166481611444565b92915050565b6000602082840312156116805761167f6113ba565b5b600061168e84828501611655565b91505092915050565b6116a0816113c4565b82525050565b600060a0820190506116bb6000830188611697565b6116c8602083018761162b565b6116d5604083018661162b565b6116e26060830185611504565b6116ef6080830184611504565b9695505050505050565b600082825260208201905092915050565b7f466c6173684c6f616e3a20636f756c642062652063616c6c656420627920447960008201527f447820706f6f6c206f6e6c790000000000000000000000000000000000000000602082015250565b6000611766602c836116f9565b91506117718261170a565b604082019050919050565b6000602082019050818103600083015261179581611759565b9050919050565b60006117a782611316565b9050919050565b6117b78161179c565b81146117c257600080fd5b50565b6000813590506117d4816117ae565b92915050565b600080600080600060a086880312156117f6576117f56113ba565b5b6000611804888289016113e7565b9550506020611815888289016117c5565b9450506040611826888289016117c5565b93505060606118378882890161145b565b92505060806118488882890161145b565b9150509295509295909350565b7f4e487b7100000000000000000000000000000000000000000000000000000000600052601160045260246000fd5b600061188f8261143a565b915061189a8361143a565b92508282039050818111156118b2576118b1611855565b5b92915050565b7f636f6e747261637420646964206e6f742067657420746865206c6f616e000000600082015250565b60006118ee601d836116f9565b91506118f9826118b8565b602082019050919050565b6000602082019050818103600083015261191d816118e1565b9050919050565b7f4e487b7100000000000000000000000000000000000000000000000000000000600052604160045260246000fd5b7f4e487b7100000000000000000000000000000000000000000000000000000000600052603260045260246000fd5b600061198d8261143a565b91506119988361143a565b92508282019050808211156119b0576119af611855565b5b92915050565b60006040820190506119cb600083018561162b565b6119d86020830184611504565b9392505050565b6000815190506119ee816113d0565b92915050565b600060208284031215611a0a57611a096113ba565b5b6000611a18848285016119df565b91505092915050565b7f466c6173684c6f616e3a20556e737570706f7274656420746f6b656e00000000600082015250565b6000611a57601c836116f9565b9150611a6282611a21565b602082019050919050565b60006020820190508181036000830152611a8681611a4a565b9050919050565b7f4e487b7100000000000000000000000000000000000000000000000000000000600052602160045260246000fd5b600081519050919050565b600082825260208201905092915050565b6000819050602082019050919050565b611af1816113fc565b82525050565b611b008161143a565b82525050565b604082016000820151611b1c6000850182611ae8565b506020820151611b2f6020850182611af7565b50505050565b6000611b418383611b06565b60408301905092915050565b6000602082019050919050565b6000611b6582611abc565b611b6f8185611ac7565b9350611b7a83611ad8565b8060005b83811015611bab578151611b928882611b35565b9750611b9d83611b4d565b925050600181019050611b7e565b5085935050505092915050565b600081519050919050565b600082825260208201905092915050565b6000819050602082019050919050565b60098110611bf557611bf4611a8d565b5b50565b6000819050611c0682611be4565b919050565b6000611c1682611bf8565b9050919050565b611c2681611c0b565b82525050565b611c35816113c4565b82525050565b60018110611c4c57611c4b611a8d565b5b50565b6000819050611c5d82611c3b565b919050565b6000611c6d82611c4f565b9050919050565b611c7d81611c62565b82525050565b60018110611c9457611c93611a8d565b5b50565b6000819050611ca582611c83565b919050565b6000611cb582611c97565b9050919050565b611cc581611caa565b82525050565b608082016000820151611ce16000850182611c2c565b506020820151611cf46020850182611c74565b506040820151611d076040850182611cbc565b506060820151611d1a6060850182611af7565b50505050565b600081519050919050565b600082825260208201905092915050565b60005b83811015611d5a578082015181840152602081019050611d3f565b60008484015250505050565b6000601f19601f8301169050919050565b6000611d8282611d20565b611d8c8185611d2b565b9350611d9c818560208601611d3c565b611da581611d66565b840191505092915050565b600061016083016000830151611dc96000860182611c1d565b506020830151611ddc6020860182611af7565b506040830151611def6040860182611ccb565b506060830151611e0260c0860182611af7565b506080830151611e1560e0860182611af7565b5060a0830151611e29610100860182611ae8565b5060c0830151611e3d610120860182611af7565b5060e0830151848203610140860152611e568282611d77565b9150508091505092915050565b6000611e6f8383611db0565b905092915050565b6000602082019050919050565b6000611e8f82611bb8565b611e998185611bc3565b935083602082028501611eab85611bd4565b8060005b85811015611ee75784840389528151611ec88582611e63565b9450611ed383611e77565b925060208a01995050600181019050611eaf565b50829750879550505050505092915050565b60006040820190508181036000830152611f138185611b5a565b90508181036020830152611f278184611e84565b90509392505050565b7f556e697377617020617070726f76616c206661696c65642e0000000000000000600082015250565b6000611f666018836116f9565b9150611f7182611f30565b602082019050919050565b60006020820190508181036000830152611f9581611f59565b9050919050565b600081519050919050565b600082825260208201905092915050565b6000819050602082019050919050565b6000611fd48383611ae8565b60208301905092915050565b6000602082019050919050565b6000611ff882611f9c565b6120028185611fa7565b935061200d83611fb8565b8060005b8381101561203e5781516120258882611fc8565b975061203083611fe0565b925050600181019050612011565b5085935050505092915050565b600060a0820190506120606000830188611504565b61206d6020830187611504565b818103604083015261207f8186611fed565b905061208e606083018561162b565b61209b6080830184611504565b9695505050505050565b6120ae82611d66565b810181811067ffffffffffffffff821117156120cd576120cc611924565b5b80604052505050565b60006120e06113b0565b90506120ec82826120a5565b919050565b600067ffffffffffffffff82111561210c5761210b611924565b5b602082029050602081019050919050565b600061213061212b846120f1565b6120d6565b905080838252602082019050602084028301858111156121535761215261155c565b5b835b8181101561217c57806121688882611655565b845260208401935050602081019050612155565b5050509392505050565b600082601f83011261219b5761219a611552565b5b81516121ab84826020860161211d565b91505092915050565b6000602082840312156121ca576121c96113ba565b5b600082015167ffffffffffffffff8111156121e8576121e76113bf565b5b6121f484828501612186565b91505092915050565b7f53757368697377617020617070726f76616c206661696c65642e000000000000600082015250565b6000612233601a836116f9565b915061223e826121fd565b602082019050919050565b6000602082019050818103600083015261226281612226565b905091905056fea2646970667358221220038a95e1401baaab7a9c05a34c546ce2e3f74211536fb108df794eae0cd151b664736f6c63430008110033",
  "linkReferences": {},
  "deployedLinkReferences": {}
}