{
  "_format": "hh-sol-artifact-1",
  "contractName": "DyDxFlashLoan",
  "sourceName": "contracts/Arbitrage.sol",
  "abi": [
    {
      "inputs": [],
      "stateMutability": "nonpayable",
      "type": "constructor"
    },
    {
      "inputs": [],
      "name": "WETH",
      "outputs": [
        {
          "internalType": "address",
          "name": "",
          "type": "address"
        }
      ],
      "stateMutability": "view",
      "type": "function"
    },
    {
      "inputs": [
        {
          "internalType": "address",
          "name": "",
          "type": "address"
        }
      ],
      "name": "currencies",
      "outputs": [
        {
          "internalType": "uint256",
          "name": "",
          "type": "uint256"
        }
      ],
      "stateMutability": "view",
      "type": "function"
    },
    {
      "inputs": [
        {
          "internalType": "address",
          "name": "token",
          "type": "address"
        }
      ],
      "name": "tokenToMarketId",
      "outputs": [
        {
          "internalType": "uint256",
          "name": "",
          "type": "uint256"
        }
      ],
      "stateMutability": "view",
      "type": "function"
    }
  ],
  "bytecode": "0x6080604052731e0447b19bb6ecfdae1e4ae1694b0c3659614e4e6000806101000a81548173ffffffffffffffffffffffffffffffffffffffff021916908373ffffffffffffffffffffffffffffffffffffffff16021790555073c02aaa39b223fe8d0a0e5c4f27ead9083c756cc2600160006101000a81548173ffffffffffffffffffffffffffffffffffffffff021916908373ffffffffffffffffffffffffffffffffffffffff1602179055503480156100b957600080fd5b50600160026000600160009054906101000a900473ffffffffffffffffffffffffffffffffffffffff1673ffffffffffffffffffffffffffffffffffffffff1673ffffffffffffffffffffffffffffffffffffffff168152602001908152602001600020819055506103a3806101306000396000f3fe608060405234801561001057600080fd5b50600436106100415760003560e01c80636036cba314610046578063ad5c464814610076578063b826878814610094575b600080fd5b610060600480360381019061005b9190610202565b6100c4565b60405161006d9190610248565b60405180910390f35b61007e6100dc565b60405161008b9190610272565b60405180910390f35b6100ae60048036038101906100a99190610202565b610102565b6040516100bb9190610248565b60405180910390f35b60026020528060005260406000206000915090505481565b600160009054906101000a900473ffffffffffffffffffffffffffffffffffffffff1681565b600080600260008473ffffffffffffffffffffffffffffffffffffffff1673ffffffffffffffffffffffffffffffffffffffff1681526020019081526020016000205490506000810361018a576040517f08c379a0000000000000000000000000000000000000000000000000000000008152600401610181906102ea565b60405180910390fd5b6001816101979190610339565b915050919050565b600080fd5b600073ffffffffffffffffffffffffffffffffffffffff82169050919050565b60006101cf826101a4565b9050919050565b6101df816101c4565b81146101ea57600080fd5b50565b6000813590506101fc816101d6565b92915050565b6000602082840312156102185761021761019f565b5b6000610226848285016101ed565b91505092915050565b6000819050919050565b6102428161022f565b82525050565b600060208201905061025d6000830184610239565b92915050565b61026c816101c4565b82525050565b60006020820190506102876000830184610263565b92915050565b600082825260208201905092915050565b7f466c6173684c6f616e3a20556e737570706f7274656420746f6b656e00000000600082015250565b60006102d4601c8361028d565b91506102df8261029e565b602082019050919050565b60006020820190508181036000830152610303816102c7565b9050919050565b7f4e487b7100000000000000000000000000000000000000000000000000000000600052601160045260246000fd5b60006103448261022f565b915061034f8361022f565b92508282039050818111156103675761036661030a565b5b9291505056fea2646970667358221220763154f6e6d2063799c0f06d97825b0b2cda0218849fc6da45a655550fc143dc64736f6c63430008110033",
  "linkReferences": {},
  "deployedLinkReferences": {}
}